{
  "_format": "hh-sol-artifact-1",
  "contractName": "Borantia",
  "sourceName": "contracts/Borantia.sol",
  "abi": [
    {
      "inputs": [],
      "stateMutability": "nonpayable",
      "type": "constructor"
    },
    {
      "anonymous": false,
      "inputs": [
        {
          "indexed": true,
          "internalType": "address",
          "name": "account",
          "type": "address"
        },
        {
          "indexed": true,
          "internalType": "address",
          "name": "operator",
          "type": "address"
        },
        {
          "indexed": false,
          "internalType": "bool",
          "name": "approved",
          "type": "bool"
        }
      ],
      "name": "ApprovalForAll",
      "type": "event"
    },
    {
      "anonymous": false,
      "inputs": [
        {
          "indexed": false,
          "internalType": "uint8",
          "name": "version",
          "type": "uint8"
        }
      ],
      "name": "Initialized",
      "type": "event"
    },
    {
      "anonymous": false,
      "inputs": [
        {
          "indexed": true,
          "internalType": "address",
          "name": "previousOwner",
          "type": "address"
        },
        {
          "indexed": true,
          "internalType": "address",
          "name": "newOwner",
          "type": "address"
        }
      ],
      "name": "OwnershipTransferred",
      "type": "event"
    },
    {
      "anonymous": false,
      "inputs": [
        {
          "indexed": false,
          "internalType": "address",
          "name": "account",
          "type": "address"
        }
      ],
      "name": "Paused",
      "type": "event"
    },
    {
      "anonymous": false,
      "inputs": [
        {
          "indexed": true,
          "internalType": "address",
          "name": "operator",
          "type": "address"
        },
        {
          "indexed": true,
          "internalType": "address",
          "name": "from",
          "type": "address"
        },
        {
          "indexed": true,
          "internalType": "address",
          "name": "to",
          "type": "address"
        },
        {
          "indexed": false,
          "internalType": "uint256[]",
          "name": "ids",
          "type": "uint256[]"
        },
        {
          "indexed": false,
          "internalType": "uint256[]",
          "name": "values",
          "type": "uint256[]"
        }
      ],
      "name": "TransferBatch",
      "type": "event"
    },
    {
      "anonymous": false,
      "inputs": [
        {
          "indexed": true,
          "internalType": "address",
          "name": "operator",
          "type": "address"
        },
        {
          "indexed": true,
          "internalType": "address",
          "name": "from",
          "type": "address"
        },
        {
          "indexed": true,
          "internalType": "address",
          "name": "to",
          "type": "address"
        },
        {
          "indexed": false,
          "internalType": "uint256",
          "name": "id",
          "type": "uint256"
        },
        {
          "indexed": false,
          "internalType": "uint256",
          "name": "value",
          "type": "uint256"
        }
      ],
      "name": "TransferSingle",
      "type": "event"
    },
    {
      "anonymous": false,
      "inputs": [
        {
          "indexed": false,
          "internalType": "string",
          "name": "value",
          "type": "string"
        },
        {
          "indexed": true,
          "internalType": "uint256",
          "name": "id",
          "type": "uint256"
        }
      ],
      "name": "URI",
      "type": "event"
    },
    {
      "anonymous": false,
      "inputs": [
        {
          "indexed": false,
          "internalType": "address",
          "name": "account",
          "type": "address"
        }
      ],
      "name": "Unpaused",
      "type": "event"
    },
    {
      "inputs": [
        {
          "internalType": "uint256",
          "name": "id",
          "type": "uint256"
        },
        {
          "internalType": "address[]",
          "name": "addresses",
          "type": "address[]"
        }
      ],
      "name": "addVolunteers",
      "outputs": [],
      "stateMutability": "nonpayable",
      "type": "function"
    },
    {
      "inputs": [
        {
          "internalType": "address",
          "name": "account",
          "type": "address"
        },
        {
          "internalType": "uint256",
          "name": "id",
          "type": "uint256"
        }
      ],
      "name": "balanceOf",
      "outputs": [
        {
          "internalType": "uint256",
          "name": "",
          "type": "uint256"
        }
      ],
      "stateMutability": "view",
      "type": "function"
    },
    {
      "inputs": [
        {
          "internalType": "address[]",
          "name": "accounts",
          "type": "address[]"
        },
        {
          "internalType": "uint256[]",
          "name": "ids",
          "type": "uint256[]"
        }
      ],
      "name": "balanceOfBatch",
      "outputs": [
        {
          "internalType": "uint256[]",
          "name": "",
          "type": "uint256[]"
        }
      ],
      "stateMutability": "view",
      "type": "function"
    },
    {
      "inputs": [
        {
          "internalType": "uint256",
          "name": "id",
          "type": "uint256"
        },
        {
          "internalType": "address",
          "name": "claimee",
          "type": "address"
        },
        {
          "internalType": "uint256",
          "name": "h",
          "type": "uint256"
        }
      ],
      "name": "claimBorantia",
      "outputs": [],
      "stateMutability": "nonpayable",
      "type": "function"
    },
    {
      "inputs": [
        {
          "internalType": "uint256",
          "name": "tokenId",
          "type": "uint256"
        }
      ],
      "name": "getMetadata",
      "outputs": [
        {
          "components": [
            {
              "internalType": "string",
              "name": "title",
              "type": "string"
            },
            {
              "internalType": "string",
              "name": "organization",
              "type": "string"
            },
            {
              "internalType": "string",
              "name": "description",
              "type": "string"
            },
            {
              "internalType": "string",
              "name": "imageUrl",
              "type": "string"
            },
            {
              "internalType": "uint256",
              "name": "eventDate",
              "type": "uint256"
            },
            {
              "internalType": "address",
              "name": "creator",
              "type": "address"
            }
          ],
          "internalType": "struct Borantia.BorantiaMetadata",
          "name": "",
          "type": "tuple"
        }
      ],
      "stateMutability": "view",
      "type": "function"
    },
    {
      "inputs": [
        {
          "internalType": "uint256",
          "name": "tokenId",
          "type": "uint256"
        }
      ],
      "name": "getVolunteerList",
      "outputs": [
        {
          "internalType": "address[]",
          "name": "",
          "type": "address[]"
        }
      ],
      "stateMutability": "view",
      "type": "function"
    },
    {
      "inputs": [
        {
          "internalType": "address",
          "name": "account",
          "type": "address"
        },
        {
          "internalType": "address",
          "name": "operator",
          "type": "address"
        }
      ],
      "name": "isApprovedForAll",
      "outputs": [
        {
          "internalType": "bool",
          "name": "",
          "type": "bool"
        }
      ],
      "stateMutability": "view",
      "type": "function"
    },
    {
      "inputs": [],
      "name": "latestUnusedTokenId",
      "outputs": [
        {
          "internalType": "uint256",
          "name": "",
          "type": "uint256"
        }
      ],
      "stateMutability": "view",
      "type": "function"
    },
    {
      "inputs": [],
      "name": "owner",
      "outputs": [
        {
          "internalType": "address",
          "name": "",
          "type": "address"
        }
      ],
      "stateMutability": "view",
      "type": "function"
    },
    {
      "inputs": [],
      "name": "pause",
      "outputs": [],
      "stateMutability": "nonpayable",
      "type": "function"
    },
    {
      "inputs": [],
      "name": "paused",
      "outputs": [
        {
          "internalType": "bool",
          "name": "",
          "type": "bool"
        }
      ],
      "stateMutability": "view",
      "type": "function"
    },
    {
      "inputs": [
        {
          "internalType": "address",
          "name": "creator",
          "type": "address"
        },
        {
          "components": [
            {
              "internalType": "string",
              "name": "title",
              "type": "string"
            },
            {
              "internalType": "string",
              "name": "organization",
              "type": "string"
            },
            {
              "internalType": "string",
              "name": "description",
              "type": "string"
            },
            {
              "internalType": "string",
              "name": "imageUrl",
              "type": "string"
            },
            {
              "internalType": "uint256",
              "name": "eventDate",
              "type": "uint256"
            }
          ],
          "internalType": "struct Borantia.BorantiaInputData",
          "name": "metadata",
          "type": "tuple"
        }
      ],
      "name": "registerBorantia",
      "outputs": [],
      "stateMutability": "nonpayable",
      "type": "function"
    },
    {
      "inputs": [],
      "name": "renounceOwnership",
      "outputs": [],
      "stateMutability": "nonpayable",
      "type": "function"
    },
    {
      "inputs": [
        {
          "internalType": "address",
          "name": "from",
          "type": "address"
        },
        {
          "internalType": "address",
          "name": "to",
          "type": "address"
        },
        {
          "internalType": "uint256[]",
          "name": "ids",
          "type": "uint256[]"
        },
        {
          "internalType": "uint256[]",
          "name": "amounts",
          "type": "uint256[]"
        },
        {
          "internalType": "bytes",
          "name": "data",
          "type": "bytes"
        }
      ],
      "name": "safeBatchTransferFrom",
      "outputs": [],
      "stateMutability": "nonpayable",
      "type": "function"
    },
    {
      "inputs": [
        {
          "internalType": "address",
          "name": "from",
          "type": "address"
        },
        {
          "internalType": "address",
          "name": "to",
          "type": "address"
        },
        {
          "internalType": "uint256",
          "name": "id",
          "type": "uint256"
        },
        {
          "internalType": "uint256",
          "name": "amount",
          "type": "uint256"
        },
        {
          "internalType": "bytes",
          "name": "data",
          "type": "bytes"
        }
      ],
      "name": "safeTransferFrom",
      "outputs": [],
      "stateMutability": "nonpayable",
      "type": "function"
    },
    {
      "inputs": [
        {
          "internalType": "address",
          "name": "operator",
          "type": "address"
        },
        {
          "internalType": "bool",
          "name": "approved",
          "type": "bool"
        }
      ],
      "name": "setApprovalForAll",
      "outputs": [],
      "stateMutability": "nonpayable",
      "type": "function"
    },
    {
      "inputs": [
        {
          "internalType": "uint256",
          "name": "_latestUnusedTokenId",
          "type": "uint256"
        }
      ],
      "name": "setLatestUnusedTokenId",
      "outputs": [],
      "stateMutability": "nonpayable",
      "type": "function"
    },
    {
      "inputs": [
        {
          "internalType": "string",
          "name": "_uri",
          "type": "string"
        }
      ],
      "name": "setURI",
      "outputs": [],
      "stateMutability": "nonpayable",
      "type": "function"
    },
    {
      "inputs": [
        {
          "internalType": "bytes4",
          "name": "interfaceId",
          "type": "bytes4"
        }
      ],
      "name": "supportsInterface",
      "outputs": [
        {
          "internalType": "bool",
          "name": "",
          "type": "bool"
        }
      ],
      "stateMutability": "view",
      "type": "function"
    },
    {
      "inputs": [
        {
          "internalType": "uint256",
          "name": "",
          "type": "uint256"
        }
      ],
      "name": "tokenIdToMetadata",
      "outputs": [
        {
          "internalType": "string",
          "name": "title",
          "type": "string"
        },
        {
          "internalType": "string",
          "name": "organization",
          "type": "string"
        },
        {
          "internalType": "string",
          "name": "description",
          "type": "string"
        },
        {
          "internalType": "string",
          "name": "imageUrl",
          "type": "string"
        },
        {
          "internalType": "uint256",
          "name": "eventDate",
          "type": "uint256"
        },
        {
          "internalType": "address",
          "name": "creator",
          "type": "address"
        }
      ],
      "stateMutability": "view",
      "type": "function"
    },
    {
      "inputs": [
        {
          "internalType": "uint256",
          "name": "",
          "type": "uint256"
        },
        {
          "internalType": "uint256",
          "name": "",
          "type": "uint256"
        }
      ],
      "name": "tokenIdToVolunteers",
      "outputs": [
        {
          "internalType": "address",
          "name": "",
          "type": "address"
        }
      ],
      "stateMutability": "view",
      "type": "function"
    },
    {
      "inputs": [
        {
          "internalType": "address",
          "name": "newOwner",
          "type": "address"
        }
      ],
      "name": "transferOwnership",
      "outputs": [],
      "stateMutability": "nonpayable",
      "type": "function"
    },
    {
      "inputs": [],
      "name": "unpause",
      "outputs": [],
      "stateMutability": "nonpayable",
      "type": "function"
    },
    {
      "inputs": [
        {
          "internalType": "uint256",
          "name": "",
          "type": "uint256"
        }
      ],
      "name": "uri",
      "outputs": [
        {
          "internalType": "string",
          "name": "",
          "type": "string"
        }
      ],
      "stateMutability": "view",
      "type": "function"
    }
  ],
  "bytecode": "0x60806040523480156200001157600080fd5b506040518060400160405280601281526020017f6d657461646174612f7b69647d2e6a736f6e0000000000000000000000000000815250620000686200005c620000a260201b60201c565b620000aa60201b60201c565b60008060166101000a81548160ff02191690831515021790555062000093816200016f60201b60201c565b506001600681905550620002a0565b600033905090565b60008060029054906101000a900473ffffffffffffffffffffffffffffffffffffffff16905081600060026101000a81548173ffffffffffffffffffffffffffffffffffffffff021916908373ffffffffffffffffffffffffffffffffffffffff1602179055508173ffffffffffffffffffffffffffffffffffffffff168173ffffffffffffffffffffffffffffffffffffffff167f8be0079c531659141344cd1fd0a4f28419497f9722a3daafe3b4186f6b6457e060405160405180910390a35050565b8060039080519060200190620001879291906200018b565b5050565b82805462000199906200023b565b90600052602060002090601f016020900481019282620001bd576000855562000209565b82601f10620001d857805160ff191683800117855562000209565b8280016001018555821562000209579182015b8281111562000208578251825591602001919060010190620001eb565b5b5090506200021891906200021c565b5090565b5b80821115620002375760008160009055506001016200021d565b5090565b600060028204905060018216806200025457607f821691505b602082108114156200026b576200026a62000271565b5b50919050565b7f4e487b7100000000000000000000000000000000000000000000000000000000600052602260045260246000fd5b6146c880620002b06000396000f3fe608060405234801561001057600080fd5b50600436106101575760003560e01c80638da5cb5b116100c3578063ac152b291161007c578063ac152b29146103b0578063b5365e4e146103cc578063bf64db1d146103e8578063e985e9c51461041d578063f242432a1461044d578063f2fde38b1461046957610157565b80638da5cb5b146102f05780638e42e0a21461030e5780639b3b63b61461032a5780639eeff04414610348578063a22cb46514610364578063a574cea41461038057610157565b80632eb2c2d6116101155780632eb2c2d6146102685780633f4ba83a146102845780634e1273f41461028e5780635c975abb146102be578063715018a6146102dc5780638456cb59146102e657610157565b8062fdd58e1461015c57806301ffc9a71461018c57806302fe5305146101bc578063031ba440146101d85780630e89341c14610208578063272a472e14610238575b600080fd5b61017660048036038101906101719190613152565b610485565b6040516101839190613cbc565b60405180910390f35b6101a660048036038101906101a191906131fa565b61054f565b6040516101b391906139c0565b60405180910390f35b6101d660048036038101906101d1919061324c565b610631565b005b6101f260048036038101906101ed919061328d565b610701565b6040516101ff9190613945565b60405180910390f35b610222600480360381019061021d919061328d565b6107a2565b60405161022f91906139db565b60405180910390f35b610252600480360381019061024d9190613359565b610836565b60405161025f9190613868565b60405180910390f35b610282600480360381019061027d9190612f74565b610884565b005b61028c610925565b005b6102a860048036038101906102a3919061318e565b6109ab565b6040516102b59190613967565b60405180910390f35b6102c6610b5c565b6040516102d391906139c0565b60405180910390f35b6102e4610b72565b005b6102ee610bfa565b005b6102f8610c80565b6040516103059190613868565b60405180910390f35b610328600480360381019061032391906132b6565b610ca9565b005b610332610d01565b60405161033f9190613cbc565b60405180910390f35b610362600480360381019061035d919061328d565b610d07565b005b61037e600480360381019061037991906130c2565b610dd4565b005b61039a6004803603810190610395919061328d565b610dea565b6040516103a79190613c9a565b60405180910390f35b6103ca60048036038101906103c591906130fe565b6110bf565b005b6103e660048036038101906103e19190613305565b611115565b005b61040260048036038101906103fd919061328d565b611189565b604051610414969594939291906139fd565b60405180910390f35b61043760048036038101906104329190612f38565b611405565b60405161044491906139c0565b60405180910390f35b61046760048036038101906104629190613033565b611499565b005b610483600480360381019061047e9190612f0f565b61153a565b005b60008073ffffffffffffffffffffffffffffffffffffffff168373ffffffffffffffffffffffffffffffffffffffff1614156104f6576040517f08c379a00000000000000000000000000000000000000000000000000000000081526004016104ed90613afa565b60405180910390fd5b6001600083815260200190815260200160002060008473ffffffffffffffffffffffffffffffffffffffff1673ffffffffffffffffffffffffffffffffffffffff16815260200190815260200160002054905092915050565b60007fd9b67a26000000000000000000000000000000000000000000000000000000007bffffffffffffffffffffffffffffffffffffffffffffffffffffffff1916827bffffffffffffffffffffffffffffffffffffffffffffffffffffffff1916148061061a57507f0e89341c000000000000000000000000000000000000000000000000000000007bffffffffffffffffffffffffffffffffffffffffffffffffffffffff1916827bffffffffffffffffffffffffffffffffffffffffffffffffffffffff1916145b8061062a575061062982611632565b5b9050919050565b61063961169c565b73ffffffffffffffffffffffffffffffffffffffff16610657610c80565b73ffffffffffffffffffffffffffffffffffffffff16146106ad576040517f08c379a00000000000000000000000000000000000000000000000000000000081526004016106a490613bda565b60405180910390fd5b6106b5610b5c565b156106f5576040517f08c379a00000000000000000000000000000000000000000000000000000000081526004016106ec90613b5a565b60405180910390fd5b6106fe816116a4565b50565b60606004600083815260200190815260200160002080548060200260200160405190810160405280929190818152602001828054801561079657602002820191906000526020600020905b8160009054906101000a900473ffffffffffffffffffffffffffffffffffffffff1673ffffffffffffffffffffffffffffffffffffffff168152602001906001019080831161074c575b50505050509050919050565b6060600380546107b190613fa6565b80601f01602080910402602001604051908101604052809291908181526020018280546107dd90613fa6565b801561082a5780601f106107ff5761010080835404028352916020019161082a565b820191906000526020600020905b81548152906001019060200180831161080d57829003601f168201915b50505050509050919050565b6004602052816000526040600020818154811061085257600080fd5b906000526020600020016000915091509054906101000a900473ffffffffffffffffffffffffffffffffffffffff1681565b61088c61169c565b73ffffffffffffffffffffffffffffffffffffffff168573ffffffffffffffffffffffffffffffffffffffff1614806108d257506108d1856108cc61169c565b611405565b5b610911576040517f08c379a000000000000000000000000000000000000000000000000000000000815260040161090890613b9a565b60405180910390fd5b61091e85858585856116be565b5050505050565b61092d61169c565b73ffffffffffffffffffffffffffffffffffffffff1661094b610c80565b73ffffffffffffffffffffffffffffffffffffffff16146109a1576040517f08c379a000000000000000000000000000000000000000000000000000000000815260040161099890613bda565b60405180910390fd5b6109a9611a2f565b565b606081518351146109f1576040517f08c379a00000000000000000000000000000000000000000000000000000000081526004016109e890613c3a565b60405180910390fd5b6000835167ffffffffffffffff811115610a34577f4e487b7100000000000000000000000000000000000000000000000000000000600052604160045260246000fd5b604051908082528060200260200182016040528015610a625781602001602082028036833780820191505090505b50905060005b8451811015610b5157610afb858281518110610aad577f4e487b7100000000000000000000000000000000000000000000000000000000600052603260045260246000fd5b6020026020010151858381518110610aee577f4e487b7100000000000000000000000000000000000000000000000000000000600052603260045260246000fd5b6020026020010151610485565b828281518110610b34577f4e487b7100000000000000000000000000000000000000000000000000000000600052603260045260246000fd5b60200260200101818152505080610b4a90614009565b9050610a68565b508091505092915050565b60008060169054906101000a900460ff16905090565b610b7a61169c565b73ffffffffffffffffffffffffffffffffffffffff16610b98610c80565b73ffffffffffffffffffffffffffffffffffffffff1614610bee576040517f08c379a0000000000000000000000000000000000000000000000000000000008152600401610be590613bda565b60405180910390fd5b610bf86000611ad0565b565b610c0261169c565b73ffffffffffffffffffffffffffffffffffffffff16610c20610c80565b73ffffffffffffffffffffffffffffffffffffffff1614610c76576040517f08c379a0000000000000000000000000000000000000000000000000000000008152600401610c6d90613bda565b60405180910390fd5b610c7e611b95565b565b60008060029054906101000a900473ffffffffffffffffffffffffffffffffffffffff16905090565b610cb1610b5c565b15610cf1576040517f08c379a0000000000000000000000000000000000000000000000000000000008152600401610ce890613b5a565b60405180910390fd5b610cfc838383611c38565b505050565b60065481565b610d0f61169c565b73ffffffffffffffffffffffffffffffffffffffff16610d2d610c80565b73ffffffffffffffffffffffffffffffffffffffff1614610d83576040517f08c379a0000000000000000000000000000000000000000000000000000000008152600401610d7a90613bda565b60405180910390fd5b610d8b610b5c565b610dca576040517f08c379a0000000000000000000000000000000000000000000000000000000008152600401610dc190613aba565b60405180910390fd5b8060068190555050565b610de6610ddf61169c565b8383611e27565b5050565b610df2612a49565b600560008381526020019081526020016000206040518060c0016040529081600082018054610e2090613fa6565b80601f0160208091040260200160405190810160405280929190818152602001828054610e4c90613fa6565b8015610e995780601f10610e6e57610100808354040283529160200191610e99565b820191906000526020600020905b815481529060010190602001808311610e7c57829003601f168201915b50505050508152602001600182018054610eb290613fa6565b80601f0160208091040260200160405190810160405280929190818152602001828054610ede90613fa6565b8015610f2b5780601f10610f0057610100808354040283529160200191610f2b565b820191906000526020600020905b815481529060010190602001808311610f0e57829003601f168201915b50505050508152602001600282018054610f4490613fa6565b80601f0160208091040260200160405190810160405280929190818152602001828054610f7090613fa6565b8015610fbd5780601f10610f9257610100808354040283529160200191610fbd565b820191906000526020600020905b815481529060010190602001808311610fa057829003601f168201915b50505050508152602001600382018054610fd690613fa6565b80601f016020809104026020016040519081016040528092919081815260200182805461100290613fa6565b801561104f5780601f106110245761010080835404028352916020019161104f565b820191906000526020600020905b81548152906001019060200180831161103257829003601f168201915b50505050508152602001600482015481526020016005820160009054906101000a900473ffffffffffffffffffffffffffffffffffffffff1673ffffffffffffffffffffffffffffffffffffffff1673ffffffffffffffffffffffffffffffffffffffff16815250509050919050565b6110c7610b5c565b15611107576040517f08c379a00000000000000000000000000000000000000000000000000000000081526004016110fe90613b5a565b60405180910390fd5b6111118282611f94565b5050565b61111d610b5c565b1561115d576040517f08c379a000000000000000000000000000000000000000000000000000000000815260040161115490613b5a565b60405180910390fd5b80600460008481526020019081526020016000209080519060200190611184929190612a95565b505050565b60056020528060005260406000206000915090508060000180546111ac90613fa6565b80601f01602080910402602001604051908101604052809291908181526020018280546111d890613fa6565b80156112255780601f106111fa57610100808354040283529160200191611225565b820191906000526020600020905b81548152906001019060200180831161120857829003601f168201915b50505050509080600101805461123a90613fa6565b80601f016020809104026020016040519081016040528092919081815260200182805461126690613fa6565b80156112b35780601f10611288576101008083540402835291602001916112b3565b820191906000526020600020905b81548152906001019060200180831161129657829003601f168201915b5050505050908060020180546112c890613fa6565b80601f01602080910402602001604051908101604052809291908181526020018280546112f490613fa6565b80156113415780601f1061131657610100808354040283529160200191611341565b820191906000526020600020905b81548152906001019060200180831161132457829003601f168201915b50505050509080600301805461135690613fa6565b80601f016020809104026020016040519081016040528092919081815260200182805461138290613fa6565b80156113cf5780601f106113a4576101008083540402835291602001916113cf565b820191906000526020600020905b8154815290600101906020018083116113b257829003601f168201915b5050505050908060040154908060050160009054906101000a900473ffffffffffffffffffffffffffffffffffffffff16905086565b6000600260008473ffffffffffffffffffffffffffffffffffffffff1673ffffffffffffffffffffffffffffffffffffffff16815260200190815260200160002060008373ffffffffffffffffffffffffffffffffffffffff1673ffffffffffffffffffffffffffffffffffffffff16815260200190815260200160002060009054906101000a900460ff16905092915050565b6114a161169c565b73ffffffffffffffffffffffffffffffffffffffff168573ffffffffffffffffffffffffffffffffffffffff1614806114e757506114e6856114e161169c565b611405565b5b611526576040517f08c379a000000000000000000000000000000000000000000000000000000000815260040161151d90613b3a565b60405180910390fd5b6115338585858585612111565b5050505050565b61154261169c565b73ffffffffffffffffffffffffffffffffffffffff16611560610c80565b73ffffffffffffffffffffffffffffffffffffffff16146115b6576040517f08c379a00000000000000000000000000000000000000000000000000000000081526004016115ad90613bda565b60405180910390fd5b600073ffffffffffffffffffffffffffffffffffffffff168173ffffffffffffffffffffffffffffffffffffffff161415611626576040517f08c379a000000000000000000000000000000000000000000000000000000000815260040161161d90613b1a565b60405180910390fd5b61162f81611ad0565b50565b60007f01ffc9a7000000000000000000000000000000000000000000000000000000007bffffffffffffffffffffffffffffffffffffffffffffffffffffffff1916827bffffffffffffffffffffffffffffffffffffffffffffffffffffffff1916149050919050565b600033905090565b80600390805190602001906116ba929190612b1f565b5050565b8151835114611702576040517f08c379a00000000000000000000000000000000000000000000000000000000081526004016116f990613c5a565b60405180910390fd5b600073ffffffffffffffffffffffffffffffffffffffff168473ffffffffffffffffffffffffffffffffffffffff161415611772576040517f08c379a000000000000000000000000000000000000000000000000000000000815260040161176990613b7a565b60405180910390fd5b600061177c61169c565b905061178c8187878787876123b0565b60005b845181101561198c5760008582815181106117d3577f4e487b7100000000000000000000000000000000000000000000000000000000600052603260045260246000fd5b602002602001015190506000858381518110611818577f4e487b7100000000000000000000000000000000000000000000000000000000600052603260045260246000fd5b6020026020010151905060006001600084815260200190815260200160002060008b73ffffffffffffffffffffffffffffffffffffffff1673ffffffffffffffffffffffffffffffffffffffff168152602001908152602001600020549050818110156118ba576040517f08c379a00000000000000000000000000000000000000000000000000000000081526004016118b190613bba565b60405180910390fd5b8181036001600085815260200190815260200160002060008c73ffffffffffffffffffffffffffffffffffffffff1673ffffffffffffffffffffffffffffffffffffffff16815260200190815260200160002081905550816001600085815260200190815260200160002060008b73ffffffffffffffffffffffffffffffffffffffff1673ffffffffffffffffffffffffffffffffffffffff16815260200190815260200160002060008282546119719190613e9a565b925050819055505050508061198590614009565b905061178f565b508473ffffffffffffffffffffffffffffffffffffffff168673ffffffffffffffffffffffffffffffffffffffff168273ffffffffffffffffffffffffffffffffffffffff167f4a39dc06d4c0dbc64b70af90fd698a233a518aa5d07e595d983b8c0526c8f7fb8787604051611a03929190613989565b60405180910390a4611a198187878787876123b8565b611a278187878787876123c0565b505050505050565b611a37610b5c565b611a76576040517f08c379a0000000000000000000000000000000000000000000000000000000008152600401611a6d90613aba565b60405180910390fd5b60008060166101000a81548160ff0219169083151502179055507f5db9ee0a495bf2e6ff9c91a7834c1ba4fdd244a5e8aa4e537bd38aeae4b073aa611ab961169c565b604051611ac69190613868565b60405180910390a1565b60008060029054906101000a900473ffffffffffffffffffffffffffffffffffffffff16905081600060026101000a81548173ffffffffffffffffffffffffffffffffffffffff021916908373ffffffffffffffffffffffffffffffffffffffff1602179055508173ffffffffffffffffffffffffffffffffffffffff168173ffffffffffffffffffffffffffffffffffffffff167f8be0079c531659141344cd1fd0a4f28419497f9722a3daafe3b4186f6b6457e060405160405180910390a35050565b611b9d610b5c565b15611bdd576040517f08c379a0000000000000000000000000000000000000000000000000000000008152600401611bd490613b5a565b60405180910390fd5b6001600060166101000a81548160ff0219169083151502179055507f62e78cea01bee320cd4e420270b5ea74000d11b0c9f74754ebdbfc544b05a258611c2161169c565b604051611c2e9190613868565b60405180910390a1565b600060046000858152602001908152602001600020805480602002602001604051908101604052809291908181526020018280548015611ccd57602002820191906000526020600020905b8160009054906101000a900473ffffffffffffffffffffffffffffffffffffffff1673ffffffffffffffffffffffffffffffffffffffff1681526020019060010190808311611c83575b505050505090506000805b8251811015611d6d57828181518110611d1a577f4e487b7100000000000000000000000000000000000000000000000000000000600052603260045260246000fd5b602002602001015173ffffffffffffffffffffffffffffffffffffffff168573ffffffffffffffffffffffffffffffffffffffff161415611d5a57600191505b8080611d6590614009565b915050611cd8565b5080611dae576040517f08c379a0000000000000000000000000000000000000000000000000000000008152600401611da590613bfa565b60405180910390fd5b6000611dba8587610485565b14611dfa576040517f08c379a0000000000000000000000000000000000000000000000000000000008152600401611df190613ada565b60405180910390fd5b611e1684866001604051806020016040528060008152506125a7565b611e208385612759565b5050505050565b8173ffffffffffffffffffffffffffffffffffffffff168373ffffffffffffffffffffffffffffffffffffffff161415611e96576040517f08c379a0000000000000000000000000000000000000000000000000000000008152600401611e8d90613c1a565b60405180910390fd5b80600260008573ffffffffffffffffffffffffffffffffffffffff1673ffffffffffffffffffffffffffffffffffffffff16815260200190815260200160002060008473ffffffffffffffffffffffffffffffffffffffff1673ffffffffffffffffffffffffffffffffffffffff16815260200190815260200160002060006101000a81548160ff0219169083151502179055508173ffffffffffffffffffffffffffffffffffffffff168373ffffffffffffffffffffffffffffffffffffffff167f17307eab39ab6107e8899845ad3d59bd9653f200f220920489ca2b5937696c3183604051611f8791906139c0565b60405180910390a3505050565b611f9c612a49565b828160a0019073ffffffffffffffffffffffffffffffffffffffff16908173ffffffffffffffffffffffffffffffffffffffff1681525050816000015181600001819052508160400151816040018190525081606001518160600181905250816080015181608001818152505081602001518160200181905250806005600060065481526020019081526020016000206000820151816000019080519060200190612048929190612b1f565b506020820151816001019080519060200190612065929190612b1f565b506040820151816002019080519060200190612082929190612b1f565b50606082015181600301908051906020019061209f929190612b1f565b506080820151816004015560a08201518160050160006101000a81548173ffffffffffffffffffffffffffffffffffffffff021916908373ffffffffffffffffffffffffffffffffffffffff1602179055509050506006600081548092919061210790614009565b9190505550505050565b600073ffffffffffffffffffffffffffffffffffffffff168473ffffffffffffffffffffffffffffffffffffffff161415612181576040517f08c379a000000000000000000000000000000000000000000000000000000000815260040161217890613b7a565b60405180910390fd5b600061218b61169c565b9050600061219885612779565b905060006121a585612779565b90506121b58389898585896123b0565b60006001600088815260200190815260200160002060008a73ffffffffffffffffffffffffffffffffffffffff1673ffffffffffffffffffffffffffffffffffffffff1681526020019081526020016000205490508581101561224d576040517f08c379a000000000000000000000000000000000000000000000000000000000815260040161224490613bba565b60405180910390fd5b8581036001600089815260200190815260200160002060008b73ffffffffffffffffffffffffffffffffffffffff1673ffffffffffffffffffffffffffffffffffffffff16815260200190815260200160002081905550856001600089815260200190815260200160002060008a73ffffffffffffffffffffffffffffffffffffffff1673ffffffffffffffffffffffffffffffffffffffff16815260200190815260200160002060008282546123049190613e9a565b925050819055508773ffffffffffffffffffffffffffffffffffffffff168973ffffffffffffffffffffffffffffffffffffffff168573ffffffffffffffffffffffffffffffffffffffff167fc3d58168c5ae7397731d063d5bbf3d657854427343f4c083240f7aacaa2d0f628a8a604051612381929190613cd7565b60405180910390a4612397848a8a86868a6123b8565b6123a5848a8a8a8a8a61283f565b505050505050505050565b505050505050565b505050505050565b6123df8473ffffffffffffffffffffffffffffffffffffffff16612a26565b1561259f578373ffffffffffffffffffffffffffffffffffffffff1663bc197c8187878686866040518663ffffffff1660e01b8152600401612425959493929190613883565b602060405180830381600087803b15801561243f57600080fd5b505af192505050801561247057506040513d601f19601f8201168201806040525081019061246d9190613223565b60015b6125165761247c6140df565b806308c379a014156124d957506124916145a0565b8061249c57506124db565b806040517f08c379a00000000000000000000000000000000000000000000000000000000081526004016124d091906139db565b60405180910390fd5b505b6040517f08c379a000000000000000000000000000000000000000000000000000000000815260040161250d90613a7a565b60405180910390fd5b63bc197c8160e01b7bffffffffffffffffffffffffffffffffffffffffffffffffffffffff1916817bffffffffffffffffffffffffffffffffffffffffffffffffffffffff19161461259d576040517f08c379a000000000000000000000000000000000000000000000000000000000815260040161259490613a9a565b60405180910390fd5b505b505050505050565b600073ffffffffffffffffffffffffffffffffffffffff168473ffffffffffffffffffffffffffffffffffffffff161415612617576040517f08c379a000000000000000000000000000000000000000000000000000000000815260040161260e90613c7a565b60405180910390fd5b600061262161169c565b9050600061262e85612779565b9050600061263b85612779565b905061264c836000898585896123b0565b846001600088815260200190815260200160002060008973ffffffffffffffffffffffffffffffffffffffff1673ffffffffffffffffffffffffffffffffffffffff16815260200190815260200160002060008282546126ac9190613e9a565b925050819055508673ffffffffffffffffffffffffffffffffffffffff16600073ffffffffffffffffffffffffffffffffffffffff168473ffffffffffffffffffffffffffffffffffffffff167fc3d58168c5ae7397731d063d5bbf3d657854427343f4c083240f7aacaa2d0f62898960405161272a929190613cd7565b60405180910390a4612741836000898585896123b8565b6127508360008989898961283f565b50505050505050565b61277581600084604051806020016040528060008152506125a7565b5050565b60606000600167ffffffffffffffff8111156127be577f4e487b7100000000000000000000000000000000000000000000000000000000600052604160045260246000fd5b6040519080825280602002602001820160405280156127ec5781602001602082028036833780820191505090505b509050828160008151811061282a577f4e487b7100000000000000000000000000000000000000000000000000000000600052603260045260246000fd5b60200260200101818152505080915050919050565b61285e8473ffffffffffffffffffffffffffffffffffffffff16612a26565b15612a1e578373ffffffffffffffffffffffffffffffffffffffff1663f23a6e6187878686866040518663ffffffff1660e01b81526004016128a49594939291906138eb565b602060405180830381600087803b1580156128be57600080fd5b505af19250505080156128ef57506040513d601f19601f820116820180604052508101906128ec9190613223565b60015b612995576128fb6140df565b806308c379a0141561295857506129106145a0565b8061291b575061295a565b806040517f08c379a000000000000000000000000000000000000000000000000000000000815260040161294f91906139db565b60405180910390fd5b505b6040517f08c379a000000000000000000000000000000000000000000000000000000000815260040161298c90613a7a565b60405180910390fd5b63f23a6e6160e01b7bffffffffffffffffffffffffffffffffffffffffffffffffffffffff1916817bffffffffffffffffffffffffffffffffffffffffffffffffffffffff191614612a1c576040517f08c379a0000000000000000000000000000000000000000000000000000000008152600401612a1390613a9a565b60405180910390fd5b505b505050505050565b6000808273ffffffffffffffffffffffffffffffffffffffff163b119050919050565b6040518060c001604052806060815260200160608152602001606081526020016060815260200160008152602001600073ffffffffffffffffffffffffffffffffffffffff1681525090565b828054828255906000526020600020908101928215612b0e579160200282015b82811115612b0d5782518260006101000a81548173ffffffffffffffffffffffffffffffffffffffff021916908373ffffffffffffffffffffffffffffffffffffffff16021790555091602001919060010190612ab5565b5b509050612b1b9190612ba5565b5090565b828054612b2b90613fa6565b90600052602060002090601f016020900481019282612b4d5760008555612b94565b82601f10612b6657805160ff1916838001178555612b94565b82800160010185558215612b94579182015b82811115612b93578251825591602001919060010190612b78565b5b509050612ba19190612ba5565b5090565b5b80821115612bbe576000816000905550600101612ba6565b5090565b6000612bd5612bd084613d25565b613d00565b90508083825260208201905082856020860282011115612bf457600080fd5b60005b85811015612c245781612c0a8882612d16565b845260208401935060208301925050600181019050612bf7565b5050509392505050565b6000612c41612c3c84613d51565b613d00565b90508083825260208201905082856020860282011115612c6057600080fd5b60005b85811015612c905781612c768882612efa565b845260208401935060208301925050600181019050612c63565b5050509392505050565b6000612cad612ca884613d7d565b613d00565b905082815260208101848484011115612cc557600080fd5b612cd0848285613f64565b509392505050565b6000612ceb612ce684613dae565b613d00565b905082815260208101848484011115612d0357600080fd5b612d0e848285613f64565b509392505050565b600081359050612d2581614636565b92915050565b600082601f830112612d3c57600080fd5b8135612d4c848260208601612bc2565b91505092915050565b600082601f830112612d6657600080fd5b8135612d76848260208601612c2e565b91505092915050565b600081359050612d8e8161464d565b92915050565b600081359050612da381614664565b92915050565b600081519050612db881614664565b92915050565b600082601f830112612dcf57600080fd5b8135612ddf848260208601612c9a565b91505092915050565b600082601f830112612df957600080fd5b8135612e09848260208601612cd8565b91505092915050565b600060a08284031215612e2457600080fd5b612e2e60a0613d00565b9050600082013567ffffffffffffffff811115612e4a57600080fd5b612e5684828501612de8565b600083015250602082013567ffffffffffffffff811115612e7657600080fd5b612e8284828501612de8565b602083015250604082013567ffffffffffffffff811115612ea257600080fd5b612eae84828501612de8565b604083015250606082013567ffffffffffffffff811115612ece57600080fd5b612eda84828501612de8565b6060830152506080612eee84828501612efa565b60808301525092915050565b600081359050612f098161467b565b92915050565b600060208284031215612f2157600080fd5b6000612f2f84828501612d16565b91505092915050565b60008060408385031215612f4b57600080fd5b6000612f5985828601612d16565b9250506020612f6a85828601612d16565b9150509250929050565b600080600080600060a08688031215612f8c57600080fd5b6000612f9a88828901612d16565b9550506020612fab88828901612d16565b945050604086013567ffffffffffffffff811115612fc857600080fd5b612fd488828901612d55565b935050606086013567ffffffffffffffff811115612ff157600080fd5b612ffd88828901612d55565b925050608086013567ffffffffffffffff81111561301a57600080fd5b61302688828901612dbe565b9150509295509295909350565b600080600080600060a0868803121561304b57600080fd5b600061305988828901612d16565b955050602061306a88828901612d16565b945050604061307b88828901612efa565b935050606061308c88828901612efa565b925050608086013567ffffffffffffffff8111156130a957600080fd5b6130b588828901612dbe565b9150509295509295909350565b600080604083850312156130d557600080fd5b60006130e385828601612d16565b92505060206130f485828601612d7f565b9150509250929050565b6000806040838503121561311157600080fd5b600061311f85828601612d16565b925050602083013567ffffffffffffffff81111561313c57600080fd5b61314885828601612e12565b9150509250929050565b6000806040838503121561316557600080fd5b600061317385828601612d16565b925050602061318485828601612efa565b9150509250929050565b600080604083850312156131a157600080fd5b600083013567ffffffffffffffff8111156131bb57600080fd5b6131c785828601612d2b565b925050602083013567ffffffffffffffff8111156131e457600080fd5b6131f085828601612d55565b9150509250929050565b60006020828403121561320c57600080fd5b600061321a84828501612d94565b91505092915050565b60006020828403121561323557600080fd5b600061324384828501612da9565b91505092915050565b60006020828403121561325e57600080fd5b600082013567ffffffffffffffff81111561327857600080fd5b61328484828501612de8565b91505092915050565b60006020828403121561329f57600080fd5b60006132ad84828501612efa565b91505092915050565b6000806000606084860312156132cb57600080fd5b60006132d986828701612efa565b93505060206132ea86828701612d16565b92505060406132fb86828701612efa565b9150509250925092565b6000806040838503121561331857600080fd5b600061332685828601612efa565b925050602083013567ffffffffffffffff81111561334357600080fd5b61334f85828601612d2b565b9150509250929050565b6000806040838503121561336c57600080fd5b600061337a85828601612efa565b925050602061338b85828601612efa565b9150509250929050565b60006133a183836133c5565b60208301905092915050565b60006133b9838361384a565b60208301905092915050565b6133ce81613ef0565b82525050565b6133dd81613ef0565b82525050565b60006133ee82613dff565b6133f88185613e45565b935061340383613ddf565b8060005b8381101561343457815161341b8882613395565b975061342683613e2b565b925050600181019050613407565b5085935050505092915050565b600061344c82613e0a565b6134568185613e56565b935061346183613def565b8060005b8381101561349257815161347988826133ad565b975061348483613e38565b925050600181019050613465565b5085935050505092915050565b6134a881613f02565b82525050565b60006134b982613e15565b6134c38185613e67565b93506134d3818560208601613f73565b6134dc81614101565b840191505092915050565b60006134f282613e20565b6134fc8185613e78565b935061350c818560208601613f73565b61351581614101565b840191505092915050565b600061352b82613e20565b6135358185613e89565b9350613545818560208601613f73565b61354e81614101565b840191505092915050565b6000613566603483613e89565b91506135718261411f565b604082019050919050565b6000613589602883613e89565b91506135948261416e565b604082019050919050565b60006135ac601483613e89565b91506135b7826141bd565b602082019050919050565b60006135cf601b83613e89565b91506135da826141e6565b602082019050919050565b60006135f2602b83613e89565b91506135fd8261420f565b604082019050919050565b6000613615602683613e89565b91506136208261425e565b604082019050919050565b6000613638602983613e89565b9150613643826142ad565b604082019050919050565b600061365b601083613e89565b9150613666826142fc565b602082019050919050565b600061367e602583613e89565b915061368982614325565b604082019050919050565b60006136a1603283613e89565b91506136ac82614374565b604082019050919050565b60006136c4602a83613e89565b91506136cf826143c3565b604082019050919050565b60006136e7602083613e89565b91506136f282614412565b602082019050919050565b600061370a601583613e89565b91506137158261443b565b602082019050919050565b600061372d602983613e89565b915061373882614464565b604082019050919050565b6000613750602983613e89565b915061375b826144b3565b604082019050919050565b6000613773602883613e89565b915061377e82614502565b604082019050919050565b6000613796602183613e89565b91506137a182614551565b604082019050919050565b600060c08301600083015184820360008601526137c982826134e7565b915050602083015184820360208601526137e382826134e7565b915050604083015184820360408601526137fd82826134e7565b9150506060830151848203606086015261381782826134e7565b915050608083015161382c608086018261384a565b5060a083015161383f60a08601826133c5565b508091505092915050565b61385381613f5a565b82525050565b61386281613f5a565b82525050565b600060208201905061387d60008301846133d4565b92915050565b600060a08201905061389860008301886133d4565b6138a560208301876133d4565b81810360408301526138b78186613441565b905081810360608301526138cb8185613441565b905081810360808301526138df81846134ae565b90509695505050505050565b600060a08201905061390060008301886133d4565b61390d60208301876133d4565b61391a6040830186613859565b6139276060830185613859565b818103608083015261393981846134ae565b90509695505050505050565b6000602082019050818103600083015261395f81846133e3565b905092915050565b600060208201905081810360008301526139818184613441565b905092915050565b600060408201905081810360008301526139a38185613441565b905081810360208301526139b78184613441565b90509392505050565b60006020820190506139d5600083018461349f565b92915050565b600060208201905081810360008301526139f58184613520565b905092915050565b600060c0820190508181036000830152613a178189613520565b90508181036020830152613a2b8188613520565b90508181036040830152613a3f8187613520565b90508181036060830152613a538186613520565b9050613a626080830185613859565b613a6f60a08301846133d4565b979650505050505050565b60006020820190508181036000830152613a9381613559565b9050919050565b60006020820190508181036000830152613ab38161357c565b9050919050565b60006020820190508181036000830152613ad38161359f565b9050919050565b60006020820190508181036000830152613af3816135c2565b9050919050565b60006020820190508181036000830152613b13816135e5565b9050919050565b60006020820190508181036000830152613b3381613608565b9050919050565b60006020820190508181036000830152613b538161362b565b9050919050565b60006020820190508181036000830152613b738161364e565b9050919050565b60006020820190508181036000830152613b9381613671565b9050919050565b60006020820190508181036000830152613bb381613694565b9050919050565b60006020820190508181036000830152613bd3816136b7565b9050919050565b60006020820190508181036000830152613bf3816136da565b9050919050565b60006020820190508181036000830152613c13816136fd565b9050919050565b60006020820190508181036000830152613c3381613720565b9050919050565b60006020820190508181036000830152613c5381613743565b9050919050565b60006020820190508181036000830152613c7381613766565b9050919050565b60006020820190508181036000830152613c9381613789565b9050919050565b60006020820190508181036000830152613cb481846137ac565b905092915050565b6000602082019050613cd16000830184613859565b92915050565b6000604082019050613cec6000830185613859565b613cf96020830184613859565b9392505050565b6000613d0a613d1b565b9050613d168282613fd8565b919050565b6000604051905090565b600067ffffffffffffffff821115613d4057613d3f6140b0565b5b602082029050602081019050919050565b600067ffffffffffffffff821115613d6c57613d6b6140b0565b5b602082029050602081019050919050565b600067ffffffffffffffff821115613d9857613d976140b0565b5b613da182614101565b9050602081019050919050565b600067ffffffffffffffff821115613dc957613dc86140b0565b5b613dd282614101565b9050602081019050919050565b6000819050602082019050919050565b6000819050602082019050919050565b600081519050919050565b600081519050919050565b600081519050919050565b600081519050919050565b6000602082019050919050565b6000602082019050919050565b600082825260208201905092915050565b600082825260208201905092915050565b600082825260208201905092915050565b600082825260208201905092915050565b600082825260208201905092915050565b6000613ea582613f5a565b9150613eb083613f5a565b9250827fffffffffffffffffffffffffffffffffffffffffffffffffffffffffffffffff03821115613ee557613ee4614052565b5b828201905092915050565b6000613efb82613f3a565b9050919050565b60008115159050919050565b60007fffffffff0000000000000000000000000000000000000000000000000000000082169050919050565b600073ffffffffffffffffffffffffffffffffffffffff82169050919050565b6000819050919050565b82818337600083830152505050565b60005b83811015613f91578082015181840152602081019050613f76565b83811115613fa0576000848401525b50505050565b60006002820490506001821680613fbe57607f821691505b60208210811415613fd257613fd1614081565b5b50919050565b613fe182614101565b810181811067ffffffffffffffff8211171561400057613fff6140b0565b5b80604052505050565b600061401482613f5a565b91507fffffffffffffffffffffffffffffffffffffffffffffffffffffffffffffffff82141561404757614046614052565b5b600182019050919050565b7f4e487b7100000000000000000000000000000000000000000000000000000000600052601160045260246000fd5b7f4e487b7100000000000000000000000000000000000000000000000000000000600052602260045260246000fd5b7f4e487b7100000000000000000000000000000000000000000000000000000000600052604160045260246000fd5b600060033d11156140fe5760046000803e6140fb600051614112565b90505b90565b6000601f19601f8301169050919050565b60008160e01c9050919050565b7f455243313135353a207472616e7366657220746f206e6f6e204552433131353560008201527f526563656976657220696d706c656d656e746572000000000000000000000000602082015250565b7f455243313135353a204552433131353552656365697665722072656a6563746560008201527f6420746f6b656e73000000000000000000000000000000000000000000000000602082015250565b7f5061757361626c653a206e6f7420706175736564000000000000000000000000600082015250565b7f616464726573732068617320746f6f206d616e7920746f6b656e730000000000600082015250565b7f455243313135353a2062616c616e636520717565727920666f7220746865207a60008201527f65726f2061646472657373000000000000000000000000000000000000000000602082015250565b7f4f776e61626c653a206e6577206f776e657220697320746865207a65726f206160008201527f6464726573730000000000000000000000000000000000000000000000000000602082015250565b7f455243313135353a2063616c6c6572206973206e6f74206f776e6572206e6f7260008201527f20617070726f7665640000000000000000000000000000000000000000000000602082015250565b7f5061757361626c653a2070617573656400000000000000000000000000000000600082015250565b7f455243313135353a207472616e7366657220746f20746865207a65726f20616460008201527f6472657373000000000000000000000000000000000000000000000000000000602082015250565b7f455243313135353a207472616e736665722063616c6c6572206973206e6f742060008201527f6f776e6572206e6f7220617070726f7665640000000000000000000000000000602082015250565b7f455243313135353a20696e73756666696369656e742062616c616e636520666f60008201527f72207472616e7366657200000000000000000000000000000000000000000000602082015250565b7f4f776e61626c653a2063616c6c6572206973206e6f7420746865206f776e6572600082015250565b7f616464726573732069736e277420616c6c6f7765640000000000000000000000600082015250565b7f455243313135353a2073657474696e6720617070726f76616c2073746174757360008201527f20666f722073656c660000000000000000000000000000000000000000000000602082015250565b7f455243313135353a206163636f756e747320616e6420696473206c656e67746860008201527f206d69736d617463680000000000000000000000000000000000000000000000602082015250565b7f455243313135353a2069647320616e6420616d6f756e7473206c656e6774682060008201527f6d69736d61746368000000000000000000000000000000000000000000000000602082015250565b7f455243313135353a206d696e7420746f20746865207a65726f2061646472657360008201527f7300000000000000000000000000000000000000000000000000000000000000602082015250565b600060443d10156145b057614633565b6145b8613d1b565b60043d036004823e80513d602482011167ffffffffffffffff821117156145e0575050614633565b808201805167ffffffffffffffff8111156145fe5750505050614633565b80602083010160043d03850181111561461b575050505050614633565b61462a82602001850186613fd8565b82955050505050505b90565b61463f81613ef0565b811461464a57600080fd5b50565b61465681613f02565b811461466157600080fd5b50565b61466d81613f0e565b811461467857600080fd5b50565b61468481613f5a565b811461468f57600080fd5b5056fea264697066735822122098d5beb26e95297fe25d629705cb0e7bfda49e8a9f6e87db6a9c5785e68eedcc64736f6c63430008040033",
  "linkReferences": {},
  "deployedLinkReferences": {}
}